{
  "_format": "hh-sol-artifact-1",
  "contractName": "DegenToken",
  "sourceName": "contracts/DegenToken.sol",
  "abi": [
    {
      "inputs": [],
      "stateMutability": "nonpayable",
      "type": "constructor"
    },
    {
      "inputs": [
        {
          "internalType": "address",
          "name": "spender",
          "type": "address"
        },
        {
          "internalType": "uint256",
          "name": "allowance",
          "type": "uint256"
        },
        {
          "internalType": "uint256",
          "name": "needed",
          "type": "uint256"
        }
      ],
      "name": "ERC20InsufficientAllowance",
      "type": "error"
    },
    {
      "inputs": [
        {
          "internalType": "address",
          "name": "sender",
          "type": "address"
        },
        {
          "internalType": "uint256",
          "name": "balance",
          "type": "uint256"
        },
        {
          "internalType": "uint256",
          "name": "needed",
          "type": "uint256"
        }
      ],
      "name": "ERC20InsufficientBalance",
      "type": "error"
    },
    {
      "inputs": [
        {
          "internalType": "address",
          "name": "approver",
          "type": "address"
        }
      ],
      "name": "ERC20InvalidApprover",
      "type": "error"
    },
    {
      "inputs": [
        {
          "internalType": "address",
          "name": "receiver",
          "type": "address"
        }
      ],
      "name": "ERC20InvalidReceiver",
      "type": "error"
    },
    {
      "inputs": [
        {
          "internalType": "address",
          "name": "sender",
          "type": "address"
        }
      ],
      "name": "ERC20InvalidSender",
      "type": "error"
    },
    {
      "inputs": [
        {
          "internalType": "address",
          "name": "spender",
          "type": "address"
        }
      ],
      "name": "ERC20InvalidSpender",
      "type": "error"
    },
    {
      "anonymous": false,
      "inputs": [
        {
          "indexed": true,
          "internalType": "address",
          "name": "owner",
          "type": "address"
        },
        {
          "indexed": true,
          "internalType": "address",
          "name": "spender",
          "type": "address"
        },
        {
          "indexed": false,
          "internalType": "uint256",
          "name": "value",
          "type": "uint256"
        }
      ],
      "name": "Approval",
      "type": "event"
    },
    {
      "anonymous": false,
      "inputs": [
        {
          "indexed": true,
          "internalType": "address",
          "name": "from",
          "type": "address"
        },
        {
          "indexed": true,
          "internalType": "address",
          "name": "to",
          "type": "address"
        },
        {
          "indexed": false,
          "internalType": "uint256",
          "name": "value",
          "type": "uint256"
        }
      ],
      "name": "Transfer",
      "type": "event"
    },
    {
      "inputs": [
        {
          "internalType": "address",
          "name": "owner",
          "type": "address"
        },
        {
          "internalType": "address",
          "name": "spender",
          "type": "address"
        }
      ],
      "name": "allowance",
      "outputs": [
        {
          "internalType": "uint256",
          "name": "",
          "type": "uint256"
        }
      ],
      "stateMutability": "view",
      "type": "function"
    },
    {
      "inputs": [
        {
          "internalType": "address",
          "name": "spender",
          "type": "address"
        },
        {
          "internalType": "uint256",
          "name": "value",
          "type": "uint256"
        }
      ],
      "name": "approve",
      "outputs": [
        {
          "internalType": "bool",
          "name": "",
          "type": "bool"
        }
      ],
      "stateMutability": "nonpayable",
      "type": "function"
    },
    {
      "inputs": [
        {
          "internalType": "address",
          "name": "account",
          "type": "address"
        }
      ],
      "name": "balanceOf",
      "outputs": [
        {
          "internalType": "uint256",
          "name": "",
          "type": "uint256"
        }
      ],
      "stateMutability": "view",
      "type": "function"
    },
    {
      "inputs": [
        {
          "internalType": "uint256",
          "name": "amount",
          "type": "uint256"
        }
      ],
      "name": "burnDegenToken",
      "outputs": [],
      "stateMutability": "nonpayable",
      "type": "function"
    },
    {
      "inputs": [],
      "name": "buyToken",
      "outputs": [],
      "stateMutability": "payable",
      "type": "function"
    },
    {
      "inputs": [],
      "name": "decimals",
      "outputs": [
        {
          "internalType": "uint8",
          "name": "",
          "type": "uint8"
        }
      ],
      "stateMutability": "view",
      "type": "function"
    },
    {
      "inputs": [
        {
          "internalType": "address",
          "name": "player",
          "type": "address"
        }
      ],
      "name": "getTokenBalance",
      "outputs": [
        {
          "internalType": "uint256",
          "name": "",
          "type": "uint256"
        }
      ],
      "stateMutability": "view",
      "type": "function"
    },
    {
      "inputs": [
        {
          "internalType": "address",
          "name": "_player",
          "type": "address"
        },
        {
          "internalType": "uint256",
          "name": "_amount",
          "type": "uint256"
        }
      ],
      "name": "mintDegenToken",
      "outputs": [],
      "stateMutability": "nonpayable",
      "type": "function"
    },
    {
      "inputs": [],
      "name": "name",
      "outputs": [
        {
          "internalType": "string",
          "name": "",
          "type": "string"
        }
      ],
      "stateMutability": "view",
      "type": "function"
    },
    {
      "inputs": [
        {
          "internalType": "string",
          "name": "_item",
          "type": "string"
        },
        {
          "internalType": "uint256",
          "name": "quantity",
          "type": "uint256"
        }
      ],
      "name": "redeemItem",
      "outputs": [],
      "stateMutability": "nonpayable",
      "type": "function"
    },
    {
      "inputs": [],
      "name": "showStore",
      "outputs": [
        {
          "internalType": "string",
          "name": "",
          "type": "string"
        }
      ],
      "stateMutability": "pure",
      "type": "function"
    },
    {
      "inputs": [],
      "name": "symbol",
      "outputs": [
        {
          "internalType": "string",
          "name": "",
          "type": "string"
        }
      ],
      "stateMutability": "view",
      "type": "function"
    },
    {
      "inputs": [],
      "name": "totalSupply",
      "outputs": [
        {
          "internalType": "uint256",
          "name": "",
          "type": "uint256"
        }
      ],
      "stateMutability": "view",
      "type": "function"
    },
    {
      "inputs": [
        {
          "internalType": "address",
          "name": "to",
          "type": "address"
        },
        {
          "internalType": "uint256",
          "name": "value",
          "type": "uint256"
        }
      ],
      "name": "transfer",
      "outputs": [
        {
          "internalType": "bool",
          "name": "",
          "type": "bool"
        }
      ],
      "stateMutability": "nonpayable",
      "type": "function"
    },
    {
      "inputs": [
        {
          "internalType": "address",
          "name": "to",
          "type": "address"
        },
        {
          "internalType": "uint256",
          "name": "amount",
          "type": "uint256"
        }
      ],
      "name": "transferDegenToken",
      "outputs": [],
      "stateMutability": "nonpayable",
      "type": "function"
    },
    {
      "inputs": [
        {
          "internalType": "address",
          "name": "from",
          "type": "address"
        },
        {
          "internalType": "address",
          "name": "to",
          "type": "address"
        },
        {
          "internalType": "uint256",
          "name": "value",
          "type": "uint256"
        }
      ],
      "name": "transferFrom",
      "outputs": [
        {
          "internalType": "bool",
          "name": "",
          "type": "bool"
        }
      ],
      "stateMutability": "nonpayable",
      "type": "function"
    }
  ],
  "bytecode": "0x60806040523480156200001157600080fd5b506040518060400160405280600a81526020017f446567656e546f6b656e000000000000000000000000000000000000000000008152506040518060400160405280600381526020017f44474e000000000000000000000000000000000000000000000000000000000081525081600390816200008f91906200038d565b508060049081620000a191906200038d565b50505033600560006101000a81548173ffffffffffffffffffffffffffffffffffffffff021916908373ffffffffffffffffffffffffffffffffffffffff16021790555060326006819055506014600781905550600160088190555060056009819055506002600a8190555062000474565b600081519050919050565b7f4e487b7100000000000000000000000000000000000000000000000000000000600052604160045260246000fd5b7f4e487b7100000000000000000000000000000000000000000000000000000000600052602260045260246000fd5b600060028204905060018216806200019557607f821691505b602082108103620001ab57620001aa6200014d565b5b50919050565b60008190508160005260206000209050919050565b60006020601f8301049050919050565b600082821b905092915050565b600060088302620002157fffffffffffffffffffffffffffffffffffffffffffffffffffffffffffffffff82620001d6565b620002218683620001d6565b95508019841693508086168417925050509392505050565b6000819050919050565b6000819050919050565b60006200026e62000268620002628462000239565b62000243565b62000239565b9050919050565b6000819050919050565b6200028a836200024d565b620002a2620002998262000275565b848454620001e3565b825550505050565b600090565b620002b9620002aa565b620002c68184846200027f565b505050565b5b81811015620002ee57620002e2600082620002af565b600181019050620002cc565b5050565b601f8211156200033d576200030781620001b1565b6200031284620001c6565b8101602085101562000322578190505b6200033a6200033185620001c6565b830182620002cb565b50505b505050565b600082821c905092915050565b6000620003626000198460080262000342565b1980831691505092915050565b60006200037d83836200034f565b9150826002028217905092915050565b620003988262000113565b67ffffffffffffffff811115620003b457620003b36200011e565b5b620003c082546200017c565b620003cd828285620002f2565b600060209050601f831160018114620004055760008415620003f0578287015190505b620003fc85826200036f565b8655506200046c565b601f1984166200041586620001b1565b60005b828110156200043f5784890151825560018201915060208501945060208101905062000418565b868310156200045f57848901516200045b601f8916826200034f565b8355505b6001600288020188555050505b505050505050565b611c6480620004846000396000f3fe6080604052600436106100f35760003560e01c80636985ce0e1161008a578063a9059cbb11610059578063a9059cbb1461031d578063a9d0e2e51461035a578063dd62ed3e14610385578063f195bab5146103c2576100f3565b80636985ce0e1461028257806370a08231146102ab57806395d89b41146102e8578063a482171914610313576100f3565b80632dc64e12116100c65780632dc64e12146101c8578063313ce567146101f15780633aecd0e31461021c5780635f6b669f14610259576100f3565b806306fdde03146100f8578063095ea7b31461012357806318160ddd1461016057806323b872dd1461018b575b600080fd5b34801561010457600080fd5b5061010d6103eb565b60405161011a9190611223565b60405180910390f35b34801561012f57600080fd5b5061014a600480360381019061014591906112e3565b61047d565b604051610157919061133e565b60405180910390f35b34801561016c57600080fd5b506101756104a0565b6040516101829190611368565b60405180910390f35b34801561019757600080fd5b506101b260048036038101906101ad9190611383565b6104aa565b6040516101bf919061133e565b60405180910390f35b3480156101d457600080fd5b506101ef60048036038101906101ea91906112e3565b6104d9565b005b3480156101fd57600080fd5b506102066104e8565b60405161021391906113f2565b60405180910390f35b34801561022857600080fd5b50610243600480360381019061023e919061140d565b6104f1565b6040516102509190611368565b60405180910390f35b34801561026557600080fd5b50610280600480360381019061027b919061149f565b610503565b005b34801561028e57600080fd5b506102a960048036038101906102a491906112e3565b610866565b005b3480156102b757600080fd5b506102d260048036038101906102cd919061140d565b610904565b6040516102df9190611368565b60405180910390f35b3480156102f457600080fd5b506102fd61094c565b60405161030a9190611223565b60405180910390f35b61031b6109de565b005b34801561032957600080fd5b50610344600480360381019061033f91906112e3565b6109fd565b604051610351919061133e565b60405180910390f35b34801561036657600080fd5b5061036f610a20565b60405161037c9190611223565b60405180910390f35b34801561039157600080fd5b506103ac60048036038101906103a791906114ff565b610a5d565b6040516103b99190611368565b60405180910390f35b3480156103ce57600080fd5b506103e960048036038101906103e4919061153f565b610ae4565b005b6060600380546103fa9061159b565b80601f01602080910402602001604051908101604052809291908181526020018280546104269061159b565b80156104735780601f1061044857610100808354040283529160200191610473565b820191906000526020600020905b81548152906001019060200180831161045657829003601f168201915b5050505050905090565b600080610488610af1565b9050610495818585610af9565b600191505092915050565b6000600254905090565b6000806104b5610af1565b90506104c2858285610b0b565b6104cd858585610b9f565b60019150509392505050565b6104e4338383610b9f565b5050565b60006012905090565b60006104fc82610904565b9050919050565b60405160200161051290611623565b60405160208183030381529060405280519060200120838360405160200161053b92919061166c565b60405160208183030381529060405280519060200120036105cb578060075461056491906116b4565b61056d33610904565b10156105ae576040517f08c379a00000000000000000000000000000000000000000000000000000000081526004016105a590611768565b60405180910390fd5b6105c63330836007546105c191906116b4565b610b9f565b610861565b6040516020016105da906117d4565b60405160208183030381529060405280519060200120838360405160200161060392919061166c565b6040516020818303038152906040528051906020012003610693578060085461062c91906116b4565b61063533610904565b1015610676576040517f08c379a000000000000000000000000000000000000000000000000000000000815260040161066d9061185b565b60405180910390fd5b61068e33308360085461068991906116b4565b610b9f565b610860565b6040516020016106a2906118c7565b6040516020818303038152906040528051906020012083836040516020016106cb92919061166c565b604051602081830303815290604052805190602001200361075b57806009546106f491906116b4565b6106fd33610904565b101561073e576040517f08c379a00000000000000000000000000000000000000000000000000000000081526004016107359061194e565b60405180910390fd5b61075633308360095461075191906116b4565b610b9f565b61085f565b60405160200161076a906119ba565b60405160208183030381529060405280519060200120838360405160200161079392919061166c565b60405160208183030381529060405280519060200120036108235780600a546107bc91906116b4565b6107c533610904565b1015610806576040517f08c379a00000000000000000000000000000000000000000000000000000000081526004016107fd90611a41565b60405180910390fd5b61081e333083600a5461081991906116b4565b610b9f565b61085e565b6040517f08c379a000000000000000000000000000000000000000000000000000000000815260040161085590611aad565b60405180910390fd5b5b5b5b505050565b600560009054906101000a900473ffffffffffffffffffffffffffffffffffffffff1673ffffffffffffffffffffffffffffffffffffffff163373ffffffffffffffffffffffffffffffffffffffff16146108f6576040517f08c379a00000000000000000000000000000000000000000000000000000000081526004016108ed90611b19565b60405180910390fd5b6109008282610c93565b5050565b60008060008373ffffffffffffffffffffffffffffffffffffffff1673ffffffffffffffffffffffffffffffffffffffff168152602001908152602001600020549050919050565b60606004805461095b9061159b565b80601f01602080910402602001604051908101604052809291908181526020018280546109879061159b565b80156109d45780601f106109a9576101008083540402835291602001916109d4565b820191906000526020600020905b8154815290600101906020018083116109b757829003601f168201915b5050505050905090565b6000600654346109ee9190611b68565b90506109fa3382610c93565b50565b600080610a08610af1565b9050610a15818585610b9f565b600191505092915050565b60606040518060400160405280601b81526020017f4865616c74682c20536b696e2c20456d626c656d732c2047656d730000000000815250905090565b6000600160008473ffffffffffffffffffffffffffffffffffffffff1673ffffffffffffffffffffffffffffffffffffffff16815260200190815260200160002060008373ffffffffffffffffffffffffffffffffffffffff1673ffffffffffffffffffffffffffffffffffffffff16815260200190815260200160002054905092915050565b610aee3382610d15565b50565b600033905090565b610b068383836001610d97565b505050565b6000610b178484610a5d565b90507fffffffffffffffffffffffffffffffffffffffffffffffffffffffffffffffff8114610b995781811015610b89578281836040517ffb8f41b2000000000000000000000000000000000000000000000000000000008152600401610b8093929190611ba8565b60405180910390fd5b610b9884848484036000610d97565b5b50505050565b600073ffffffffffffffffffffffffffffffffffffffff168373ffffffffffffffffffffffffffffffffffffffff1603610c115760006040517f96c6fd1e000000000000000000000000000000000000000000000000000000008152600401610c089190611bdf565b60405180910390fd5b600073ffffffffffffffffffffffffffffffffffffffff168273ffffffffffffffffffffffffffffffffffffffff1603610c835760006040517fec442f05000000000000000000000000000000000000000000000000000000008152600401610c7a9190611bdf565b60405180910390fd5b610c8e838383610f6e565b505050565b600073ffffffffffffffffffffffffffffffffffffffff168273ffffffffffffffffffffffffffffffffffffffff1603610d055760006040517fec442f05000000000000000000000000000000000000000000000000000000008152600401610cfc9190611bdf565b60405180910390fd5b610d1160008383610f6e565b5050565b600073ffffffffffffffffffffffffffffffffffffffff168273ffffffffffffffffffffffffffffffffffffffff1603610d875760006040517f96c6fd1e000000000000000000000000000000000000000000000000000000008152600401610d7e9190611bdf565b60405180910390fd5b610d9382600083610f6e565b5050565b600073ffffffffffffffffffffffffffffffffffffffff168473ffffffffffffffffffffffffffffffffffffffff1603610e095760006040517fe602df05000000000000000000000000000000000000000000000000000000008152600401610e009190611bdf565b60405180910390fd5b600073ffffffffffffffffffffffffffffffffffffffff168373ffffffffffffffffffffffffffffffffffffffff1603610e7b5760006040517f94280d62000000000000000000000000000000000000000000000000000000008152600401610e729190611bdf565b60405180910390fd5b81600160008673ffffffffffffffffffffffffffffffffffffffff1673ffffffffffffffffffffffffffffffffffffffff16815260200190815260200160002060008573ffffffffffffffffffffffffffffffffffffffff1673ffffffffffffffffffffffffffffffffffffffff168152602001908152602001600020819055508015610f68578273ffffffffffffffffffffffffffffffffffffffff168473ffffffffffffffffffffffffffffffffffffffff167f8c5be1e5ebec7d5bd14f71427d1e84f3dd0314c0f7b2291e5b200ac8c7c3b92584604051610f5f9190611368565b60405180910390a35b50505050565b600073ffffffffffffffffffffffffffffffffffffffff168373ffffffffffffffffffffffffffffffffffffffff1603610fc0578060026000828254610fb49190611bfa565b92505081905550611093565b60008060008573ffffffffffffffffffffffffffffffffffffffff1673ffffffffffffffffffffffffffffffffffffffff1681526020019081526020016000205490508181101561104c578381836040517fe450d38c00000000000000000000000000000000000000000000000000000000815260040161104393929190611ba8565b60405180910390fd5b8181036000808673ffffffffffffffffffffffffffffffffffffffff1673ffffffffffffffffffffffffffffffffffffffff16815260200190815260200160002081905550505b600073ffffffffffffffffffffffffffffffffffffffff168273ffffffffffffffffffffffffffffffffffffffff16036110dc5780600260008282540392505081905550611129565b806000808473ffffffffffffffffffffffffffffffffffffffff1673ffffffffffffffffffffffffffffffffffffffff168152602001908152602001600020600082825401925050819055505b8173ffffffffffffffffffffffffffffffffffffffff168373ffffffffffffffffffffffffffffffffffffffff167fddf252ad1be2c89b69c2b068fc378daa952ba7f163c4a11628f55a4df523b3ef836040516111869190611368565b60405180910390a3505050565b600081519050919050565b600082825260208201905092915050565b60005b838110156111cd5780820151818401526020810190506111b2565b60008484015250505050565b6000601f19601f8301169050919050565b60006111f582611193565b6111ff818561119e565b935061120f8185602086016111af565b611218816111d9565b840191505092915050565b6000602082019050818103600083015261123d81846111ea565b905092915050565b600080fd5b600080fd5b600073ffffffffffffffffffffffffffffffffffffffff82169050919050565b600061127a8261124f565b9050919050565b61128a8161126f565b811461129557600080fd5b50565b6000813590506112a781611281565b92915050565b6000819050919050565b6112c0816112ad565b81146112cb57600080fd5b50565b6000813590506112dd816112b7565b92915050565b600080604083850312156112fa576112f9611245565b5b600061130885828601611298565b9250506020611319858286016112ce565b9150509250929050565b60008115159050919050565b61133881611323565b82525050565b6000602082019050611353600083018461132f565b92915050565b611362816112ad565b82525050565b600060208201905061137d6000830184611359565b92915050565b60008060006060848603121561139c5761139b611245565b5b60006113aa86828701611298565b93505060206113bb86828701611298565b92505060406113cc868287016112ce565b9150509250925092565b600060ff82169050919050565b6113ec816113d6565b82525050565b600060208201905061140760008301846113e3565b92915050565b60006020828403121561142357611422611245565b5b600061143184828501611298565b91505092915050565b600080fd5b600080fd5b600080fd5b60008083601f84011261145f5761145e61143a565b5b8235905067ffffffffffffffff81111561147c5761147b61143f565b5b60208301915083600182028301111561149857611497611444565b5b9250929050565b6000806000604084860312156114b8576114b7611245565b5b600084013567ffffffffffffffff8111156114d6576114d561124a565b5b6114e286828701611449565b935093505060206114f5868287016112ce565b9150509250925092565b6000806040838503121561151657611515611245565b5b600061152485828601611298565b925050602061153585828601611298565b9150509250929050565b60006020828403121561155557611554611245565b5b6000611563848285016112ce565b91505092915050565b7f4e487b7100000000000000000000000000000000000000000000000000000000600052602260045260246000fd5b600060028204905060018216806115b357607f821691505b6020821081036115c6576115c561156c565b5b50919050565b600081905092915050565b7f4865616c74680000000000000000000000000000000000000000000000000000600082015250565b600061160d6006836115cc565b9150611618826115d7565b600682019050919050565b600061162e82611600565b9150819050919050565b82818337600083830152505050565b600061165383856115cc565b9350611660838584611638565b82840190509392505050565b6000611679828486611647565b91508190509392505050565b7f4e487b7100000000000000000000000000000000000000000000000000000000600052601160045260246000fd5b60006116bf826112ad565b91506116ca836112ad565b92508282026116d8816112ad565b915082820484148315176116ef576116ee611685565b5b5092915050565b7f4e6f7420656e6f75676820446567656e20546f6b656e7320746f20627579206860008201527f65616c7468000000000000000000000000000000000000000000000000000000602082015250565b600061175260258361119e565b915061175d826116f6565b604082019050919050565b6000602082019050818103600083015261178181611745565b9050919050565b7f536b696e00000000000000000000000000000000000000000000000000000000600082015250565b60006117be6004836115cc565b91506117c982611788565b600482019050919050565b60006117df826117b1565b9150819050919050565b7f4e6f7420656e6f75676820446567656e20546f6b656e7320746f20627579207360008201527f6b696e0000000000000000000000000000000000000000000000000000000000602082015250565b600061184560238361119e565b9150611850826117e9565b604082019050919050565b6000602082019050818103600083015261187481611838565b9050919050565b7f456d626c656d0000000000000000000000000000000000000000000000000000600082015250565b60006118b16006836115cc565b91506118bc8261187b565b600682019050919050565b60006118d2826118a4565b9150819050919050565b7f4e6f7420656e6f75676820446567656e20546f6b656e7320746f20627579206560008201527f6d626c656d000000000000000000000000000000000000000000000000000000602082015250565b600061193860258361119e565b9150611943826118dc565b604082019050919050565b600060208201905081810360008301526119678161192b565b9050919050565b7f47656d7300000000000000000000000000000000000000000000000000000000600082015250565b60006119a46004836115cc565b91506119af8261196e565b600482019050919050565b60006119c582611997565b9150819050919050565b7f4e6f7420656e6f75676820446567656e20546f6b656e7320746f20627579206760008201527f656d730000000000000000000000000000000000000000000000000000000000602082015250565b6000611a2b60238361119e565b9150611a36826119cf565b604082019050919050565b60006020820190508181036000830152611a5a81611a1e565b9050919050565b7f496e76616c6964206974656d0000000000000000000000000000000000000000600082015250565b6000611a97600c8361119e565b9150611aa282611a61565b602082019050919050565b60006020820190508181036000830152611ac681611a8a565b9050919050565b7f796f7520617265206e6f7420746865206f776e65720000000000000000000000600082015250565b6000611b0360158361119e565b9150611b0e82611acd565b602082019050919050565b60006020820190508181036000830152611b3281611af6565b9050919050565b7f4e487b7100000000000000000000000000000000000000000000000000000000600052601260045260246000fd5b6000611b73826112ad565b9150611b7e836112ad565b925082611b8e57611b8d611b39565b5b828204905092915050565b611ba28161126f565b82525050565b6000606082019050611bbd6000830186611b99565b611bca6020830185611359565b611bd76040830184611359565b949350505050565b6000602082019050611bf46000830184611b99565b92915050565b6000611c05826112ad565b9150611c10836112ad565b9250828201905080821115611c2857611c27611685565b5b9291505056fea26469706673582212205a68dc21280a0ae30c71739706777aaa0ef0f8a9e4c896435bcf0b56173e22b464736f6c63430008180033",
  "linkReferences": {},
  "deployedLinkReferences": {}
}