{
  "_format": "hh-sol-artifact-1",
  "contractName": "DegenToken",
  "sourceName": "contracts/DegenToken.sol",
  "abi": [
    {
      "inputs": [],
      "stateMutability": "nonpayable",
      "type": "constructor"
    },
    {
      "inputs": [
        {
          "internalType": "address",
          "name": "spender",
          "type": "address"
        },
        {
          "internalType": "uint256",
          "name": "allowance",
          "type": "uint256"
        },
        {
          "internalType": "uint256",
          "name": "needed",
          "type": "uint256"
        }
      ],
      "name": "ERC20InsufficientAllowance",
      "type": "error"
    },
    {
      "inputs": [
        {
          "internalType": "address",
          "name": "sender",
          "type": "address"
        },
        {
          "internalType": "uint256",
          "name": "balance",
          "type": "uint256"
        },
        {
          "internalType": "uint256",
          "name": "needed",
          "type": "uint256"
        }
      ],
      "name": "ERC20InsufficientBalance",
      "type": "error"
    },
    {
      "inputs": [
        {
          "internalType": "address",
          "name": "approver",
          "type": "address"
        }
      ],
      "name": "ERC20InvalidApprover",
      "type": "error"
    },
    {
      "inputs": [
        {
          "internalType": "address",
          "name": "receiver",
          "type": "address"
        }
      ],
      "name": "ERC20InvalidReceiver",
      "type": "error"
    },
    {
      "inputs": [
        {
          "internalType": "address",
          "name": "sender",
          "type": "address"
        }
      ],
      "name": "ERC20InvalidSender",
      "type": "error"
    },
    {
      "inputs": [
        {
          "internalType": "address",
          "name": "spender",
          "type": "address"
        }
      ],
      "name": "ERC20InvalidSpender",
      "type": "error"
    },
    {
      "anonymous": false,
      "inputs": [
        {
          "indexed": true,
          "internalType": "address",
          "name": "owner",
          "type": "address"
        },
        {
          "indexed": true,
          "internalType": "address",
          "name": "spender",
          "type": "address"
        },
        {
          "indexed": false,
          "internalType": "uint256",
          "name": "value",
          "type": "uint256"
        }
      ],
      "name": "Approval",
      "type": "event"
    },
    {
      "anonymous": false,
      "inputs": [
        {
          "indexed": true,
          "internalType": "address",
          "name": "from",
          "type": "address"
        },
        {
          "indexed": true,
          "internalType": "address",
          "name": "to",
          "type": "address"
        },
        {
          "indexed": false,
          "internalType": "uint256",
          "name": "value",
          "type": "uint256"
        }
      ],
      "name": "Transfer",
      "type": "event"
    },
    {
      "inputs": [
        {
          "internalType": "address",
          "name": "owner",
          "type": "address"
        },
        {
          "internalType": "address",
          "name": "spender",
          "type": "address"
        }
      ],
      "name": "allowance",
      "outputs": [
        {
          "internalType": "uint256",
          "name": "",
          "type": "uint256"
        }
      ],
      "stateMutability": "view",
      "type": "function"
    },
    {
      "inputs": [
        {
          "internalType": "address",
          "name": "spender",
          "type": "address"
        },
        {
          "internalType": "uint256",
          "name": "value",
          "type": "uint256"
        }
      ],
      "name": "approve",
      "outputs": [
        {
          "internalType": "bool",
          "name": "",
          "type": "bool"
        }
      ],
      "stateMutability": "nonpayable",
      "type": "function"
    },
    {
      "inputs": [
        {
          "internalType": "address",
          "name": "account",
          "type": "address"
        }
      ],
      "name": "balanceOf",
      "outputs": [
        {
          "internalType": "uint256",
          "name": "",
          "type": "uint256"
        }
      ],
      "stateMutability": "view",
      "type": "function"
    },
    {
      "inputs": [
        {
          "internalType": "uint256",
          "name": "amount",
          "type": "uint256"
        }
      ],
      "name": "burnDegenToken",
      "outputs": [],
      "stateMutability": "nonpayable",
      "type": "function"
    },
    {
      "inputs": [],
      "name": "buyToken",
      "outputs": [],
      "stateMutability": "payable",
      "type": "function"
    },
    {
      "inputs": [],
      "name": "decimals",
      "outputs": [
        {
          "internalType": "uint8",
          "name": "",
          "type": "uint8"
        }
      ],
      "stateMutability": "view",
      "type": "function"
    },
    {
      "inputs": [
        {
          "internalType": "address",
          "name": "player",
          "type": "address"
        }
      ],
      "name": "getTokenBalance",
      "outputs": [
        {
          "internalType": "uint256",
          "name": "",
          "type": "uint256"
        }
      ],
      "stateMutability": "view",
      "type": "function"
    },
    {
      "inputs": [
        {
          "internalType": "address",
          "name": "_player",
          "type": "address"
        },
        {
          "internalType": "uint256",
          "name": "_amount",
          "type": "uint256"
        }
      ],
      "name": "mintDegenToken",
      "outputs": [],
      "stateMutability": "nonpayable",
      "type": "function"
    },
    {
      "inputs": [],
      "name": "name",
      "outputs": [
        {
          "internalType": "string",
          "name": "",
          "type": "string"
        }
      ],
      "stateMutability": "view",
      "type": "function"
    },
    {
      "inputs": [
        {
          "internalType": "address",
          "name": "",
          "type": "address"
        },
        {
          "internalType": "string",
          "name": "",
          "type": "string"
        }
      ],
      "name": "playerInventory",
      "outputs": [
        {
          "internalType": "uint256",
          "name": "",
          "type": "uint256"
        }
      ],
      "stateMutability": "view",
      "type": "function"
    },
    {
      "inputs": [
        {
          "internalType": "string",
          "name": "_item",
          "type": "string"
        },
        {
          "internalType": "uint256",
          "name": "quantity",
          "type": "uint256"
        }
      ],
      "name": "redeemItem",
      "outputs": [],
      "stateMutability": "payable",
      "type": "function"
    },
    {
      "inputs": [],
      "name": "showStore",
      "outputs": [
        {
          "internalType": "string",
          "name": "",
          "type": "string"
        }
      ],
      "stateMutability": "pure",
      "type": "function"
    },
    {
      "inputs": [],
      "name": "symbol",
      "outputs": [
        {
          "internalType": "string",
          "name": "",
          "type": "string"
        }
      ],
      "stateMutability": "view",
      "type": "function"
    },
    {
      "inputs": [],
      "name": "totalSupply",
      "outputs": [
        {
          "internalType": "uint256",
          "name": "",
          "type": "uint256"
        }
      ],
      "stateMutability": "view",
      "type": "function"
    },
    {
      "inputs": [
        {
          "internalType": "address",
          "name": "to",
          "type": "address"
        },
        {
          "internalType": "uint256",
          "name": "value",
          "type": "uint256"
        }
      ],
      "name": "transfer",
      "outputs": [
        {
          "internalType": "bool",
          "name": "",
          "type": "bool"
        }
      ],
      "stateMutability": "nonpayable",
      "type": "function"
    },
    {
      "inputs": [
        {
          "internalType": "address",
          "name": "to",
          "type": "address"
        },
        {
          "internalType": "uint256",
          "name": "amount",
          "type": "uint256"
        }
      ],
      "name": "transferDegenToken",
      "outputs": [],
      "stateMutability": "nonpayable",
      "type": "function"
    },
    {
      "inputs": [
        {
          "internalType": "address",
          "name": "from",
          "type": "address"
        },
        {
          "internalType": "address",
          "name": "to",
          "type": "address"
        },
        {
          "internalType": "uint256",
          "name": "value",
          "type": "uint256"
        }
      ],
      "name": "transferFrom",
      "outputs": [
        {
          "internalType": "bool",
          "name": "",
          "type": "bool"
        }
      ],
      "stateMutability": "nonpayable",
      "type": "function"
    }
  ],
  "bytecode": "0x60806040523480156200001157600080fd5b506040518060400160405280600a81526020017f446567656e546f6b656e000000000000000000000000000000000000000000008152506040518060400160405280600381526020017f44474e000000000000000000000000000000000000000000000000000000000081525081600390816200008f91906200038d565b508060049081620000a191906200038d565b50505033600560006101000a81548173ffffffffffffffffffffffffffffffffffffffff021916908373ffffffffffffffffffffffffffffffffffffffff16021790555060326006819055506014600781905550600160088190555060056009819055506002600a8190555062000474565b600081519050919050565b7f4e487b7100000000000000000000000000000000000000000000000000000000600052604160045260246000fd5b7f4e487b7100000000000000000000000000000000000000000000000000000000600052602260045260246000fd5b600060028204905060018216806200019557607f821691505b602082108103620001ab57620001aa6200014d565b5b50919050565b60008190508160005260206000209050919050565b60006020601f8301049050919050565b600082821b905092915050565b600060088302620002157fffffffffffffffffffffffffffffffffffffffffffffffffffffffffffffffff82620001d6565b620002218683620001d6565b95508019841693508086168417925050509392505050565b6000819050919050565b6000819050919050565b60006200026e62000268620002628462000239565b62000243565b62000239565b9050919050565b6000819050919050565b6200028a836200024d565b620002a2620002998262000275565b848454620001e3565b825550505050565b600090565b620002b9620002aa565b620002c68184846200027f565b505050565b5b81811015620002ee57620002e2600082620002af565b600181019050620002cc565b5050565b601f8211156200033d576200030781620001b1565b6200031284620001c6565b8101602085101562000322578190505b6200033a6200033185620001c6565b830182620002cb565b50505b505050565b600082821c905092915050565b6000620003626000198460080262000342565b1980831691505092915050565b60006200037d83836200034f565b9150826002028217905092915050565b620003988262000113565b67ffffffffffffffff811115620003b457620003b36200011e565b5b620003c082546200017c565b620003cd828285620002f2565b600060209050601f831160018114620004055760008415620003f0578287015190505b620003fc85826200036f565b8655506200046c565b601f1984166200041586620001b1565b60005b828110156200043f5784890151825560018201915060208501945060208101905062000418565b868310156200045f57848901516200045b601f8916826200034f565b8355505b6001600288020188555050505b505050505050565b61202180620004846000396000f3fe6080604052600436106100fe5760003560e01c80636985ce0e11610095578063a9059cbb11610064578063a9059cbb1461031b578063a9d0e2e514610358578063ad487af614610383578063dd62ed3e146103c0578063f195bab5146103fd576100fe565b80636985ce0e1461028057806370a08231146102a957806395d89b41146102e6578063a482171914610311576100fe565b80632dc64e12116100d15780632dc64e12146101d3578063313ce567146101fc5780633aecd0e3146102275780635f6b669f14610264576100fe565b806306fdde0314610103578063095ea7b31461012e57806318160ddd1461016b57806323b872dd14610196575b600080fd5b34801561010f57600080fd5b50610118610426565b6040516101259190611459565b60405180910390f35b34801561013a57600080fd5b5061015560048036038101906101509190611523565b6104b8565b604051610162919061157e565b60405180910390f35b34801561017757600080fd5b506101806104db565b60405161018d91906115a8565b60405180910390f35b3480156101a257600080fd5b506101bd60048036038101906101b891906115c3565b6104e5565b6040516101ca919061157e565b60405180910390f35b3480156101df57600080fd5b506101fa60048036038101906101f59190611523565b610514565b005b34801561020857600080fd5b50610211610523565b60405161021e9190611632565b60405180910390f35b34801561023357600080fd5b5061024e6004803603810190610249919061164d565b61052c565b60405161025b91906115a8565b60405180910390f35b61027e600480360381019061027991906116df565b61053e565b005b34801561028c57600080fd5b506102a760048036038101906102a29190611523565b610a61565b005b3480156102b557600080fd5b506102d060048036038101906102cb919061164d565b610aff565b6040516102dd91906115a8565b60405180910390f35b3480156102f257600080fd5b506102fb610b47565b6040516103089190611459565b60405180910390f35b610319610bd9565b005b34801561032757600080fd5b50610342600480360381019061033d9190611523565b610bf8565b60405161034f919061157e565b60405180910390f35b34801561036457600080fd5b5061036d610c1b565b60405161037a9190611459565b60405180910390f35b34801561038f57600080fd5b506103aa60048036038101906103a5919061186f565b610c58565b6040516103b791906115a8565b60405180910390f35b3480156103cc57600080fd5b506103e760048036038101906103e291906118cb565b610c93565b6040516103f491906115a8565b60405180910390f35b34801561040957600080fd5b50610424600480360381019061041f919061190b565b610d1a565b005b60606003805461043590611967565b80601f016020809104026020016040519081016040528092919081815260200182805461046190611967565b80156104ae5780601f10610483576101008083540402835291602001916104ae565b820191906000526020600020905b81548152906001019060200180831161049157829003601f168201915b5050505050905090565b6000806104c3610d27565b90506104d0818585610d2f565b600191505092915050565b6000600254905090565b6000806104f0610d27565b90506104fd858285610d41565b610508858585610dd5565b60019150509392505050565b61051f338383610dd5565b5050565b60006012905090565b600061053782610aff565b9050919050565b60405160200161054d906119ef565b604051602081830303815290604052805190602001208383604051602001610576929190611a29565b6040516020818303038152906040528051906020012003610676578060075461059f9190611a71565b6105a833610aff565b10156105e9576040517f08c379a00000000000000000000000000000000000000000000000000000000081526004016105e090611b25565b60405180910390fd5b6106013330836007546105fc9190611a71565b610dd5565b80600b60003373ffffffffffffffffffffffffffffffffffffffff1673ffffffffffffffffffffffffffffffffffffffff16815260200190815260200160002060405161064d906119ef565b9081526020016040518091039020600082825461066a9190611b45565b92505081905550610a5c565b60405160200161068590611bc5565b6040516020818303038152906040528051906020012083836040516020016106ae929190611a29565b60405160208183030381529060405280519060200120036107ae57806008546106d79190611a71565b6106e033610aff565b1015610721576040517f08c379a000000000000000000000000000000000000000000000000000000000815260040161071890611c4c565b60405180910390fd5b6107393330836008546107349190611a71565b610dd5565b80600b60003373ffffffffffffffffffffffffffffffffffffffff1673ffffffffffffffffffffffffffffffffffffffff16815260200190815260200160002060405161078590611bc5565b908152602001604051809103902060008282546107a29190611b45565b92505081905550610a5b565b6040516020016107bd90611cb8565b6040516020818303038152906040528051906020012083836040516020016107e6929190611a29565b60405160208183030381529060405280519060200120036108e6578060095461080f9190611a71565b61081833610aff565b1015610859576040517f08c379a000000000000000000000000000000000000000000000000000000000815260040161085090611d3f565b60405180910390fd5b61087133308360095461086c9190611a71565b610dd5565b80600b60003373ffffffffffffffffffffffffffffffffffffffff1673ffffffffffffffffffffffffffffffffffffffff1681526020019081526020016000206040516108bd90611cb8565b908152602001604051809103902060008282546108da9190611b45565b92505081905550610a5a565b6040516020016108f590611dab565b60405160208183030381529060405280519060200120838360405160200161091e929190611a29565b6040516020818303038152906040528051906020012003610a1e5780600a546109479190611a71565b61095033610aff565b1015610991576040517f08c379a000000000000000000000000000000000000000000000000000000000815260040161098890611e32565b60405180910390fd5b6109a9333083600a546109a49190611a71565b610dd5565b80600b60003373ffffffffffffffffffffffffffffffffffffffff1673ffffffffffffffffffffffffffffffffffffffff1681526020019081526020016000206040516109f590611dab565b90815260200160405180910390206000828254610a129190611b45565b92505081905550610a59565b6040517f08c379a0000000000000000000000000000000000000000000000000000000008152600401610a5090611e9e565b60405180910390fd5b5b5b5b505050565b600560009054906101000a900473ffffffffffffffffffffffffffffffffffffffff1673ffffffffffffffffffffffffffffffffffffffff163373ffffffffffffffffffffffffffffffffffffffff1614610af1576040517f08c379a0000000000000000000000000000000000000000000000000000000008152600401610ae890611f0a565b60405180910390fd5b610afb8282610ec9565b5050565b60008060008373ffffffffffffffffffffffffffffffffffffffff1673ffffffffffffffffffffffffffffffffffffffff168152602001908152602001600020549050919050565b606060048054610b5690611967565b80601f0160208091040260200160405190810160405280929190818152602001828054610b8290611967565b8015610bcf5780601f10610ba457610100808354040283529160200191610bcf565b820191906000526020600020905b815481529060010190602001808311610bb257829003601f168201915b5050505050905090565b600060065434610be99190611f59565b9050610bf53382610ec9565b50565b600080610c03610d27565b9050610c10818585610dd5565b600191505092915050565b60606040518060400160405280601b81526020017f4865616c74682c20536b696e2c20456d626c656d732c2047656d730000000000815250905090565b600b60205281600052604060002081805160208101820180518482526020830160208501208183528095505050505050600091509150505481565b6000600160008473ffffffffffffffffffffffffffffffffffffffff1673ffffffffffffffffffffffffffffffffffffffff16815260200190815260200160002060008373ffffffffffffffffffffffffffffffffffffffff1673ffffffffffffffffffffffffffffffffffffffff16815260200190815260200160002054905092915050565b610d243382610f4b565b50565b600033905090565b610d3c8383836001610fcd565b505050565b6000610d4d8484610c93565b90507fffffffffffffffffffffffffffffffffffffffffffffffffffffffffffffffff8114610dcf5781811015610dbf578281836040517ffb8f41b2000000000000000000000000000000000000000000000000000000008152600401610db693929190611f99565b60405180910390fd5b610dce84848484036000610fcd565b5b50505050565b600073ffffffffffffffffffffffffffffffffffffffff168373ffffffffffffffffffffffffffffffffffffffff1603610e475760006040517f96c6fd1e000000000000000000000000000000000000000000000000000000008152600401610e3e9190611fd0565b60405180910390fd5b600073ffffffffffffffffffffffffffffffffffffffff168273ffffffffffffffffffffffffffffffffffffffff1603610eb95760006040517fec442f05000000000000000000000000000000000000000000000000000000008152600401610eb09190611fd0565b60405180910390fd5b610ec48383836111a4565b505050565b600073ffffffffffffffffffffffffffffffffffffffff168273ffffffffffffffffffffffffffffffffffffffff1603610f3b5760006040517fec442f05000000000000000000000000000000000000000000000000000000008152600401610f329190611fd0565b60405180910390fd5b610f47600083836111a4565b5050565b600073ffffffffffffffffffffffffffffffffffffffff168273ffffffffffffffffffffffffffffffffffffffff1603610fbd5760006040517f96c6fd1e000000000000000000000000000000000000000000000000000000008152600401610fb49190611fd0565b60405180910390fd5b610fc9826000836111a4565b5050565b600073ffffffffffffffffffffffffffffffffffffffff168473ffffffffffffffffffffffffffffffffffffffff160361103f5760006040517fe602df050000000000000000000000000000000000000000000000000000000081526004016110369190611fd0565b60405180910390fd5b600073ffffffffffffffffffffffffffffffffffffffff168373ffffffffffffffffffffffffffffffffffffffff16036110b15760006040517f94280d620000000000000000000000000000000000000000000000000000000081526004016110a89190611fd0565b60405180910390fd5b81600160008673ffffffffffffffffffffffffffffffffffffffff1673ffffffffffffffffffffffffffffffffffffffff16815260200190815260200160002060008573ffffffffffffffffffffffffffffffffffffffff1673ffffffffffffffffffffffffffffffffffffffff16815260200190815260200160002081905550801561119e578273ffffffffffffffffffffffffffffffffffffffff168473ffffffffffffffffffffffffffffffffffffffff167f8c5be1e5ebec7d5bd14f71427d1e84f3dd0314c0f7b2291e5b200ac8c7c3b9258460405161119591906115a8565b60405180910390a35b50505050565b600073ffffffffffffffffffffffffffffffffffffffff168373ffffffffffffffffffffffffffffffffffffffff16036111f65780600260008282546111ea9190611b45565b925050819055506112c9565b60008060008573ffffffffffffffffffffffffffffffffffffffff1673ffffffffffffffffffffffffffffffffffffffff16815260200190815260200160002054905081811015611282578381836040517fe450d38c00000000000000000000000000000000000000000000000000000000815260040161127993929190611f99565b60405180910390fd5b8181036000808673ffffffffffffffffffffffffffffffffffffffff1673ffffffffffffffffffffffffffffffffffffffff16815260200190815260200160002081905550505b600073ffffffffffffffffffffffffffffffffffffffff168273ffffffffffffffffffffffffffffffffffffffff1603611312578060026000828254039250508190555061135f565b806000808473ffffffffffffffffffffffffffffffffffffffff1673ffffffffffffffffffffffffffffffffffffffff168152602001908152602001600020600082825401925050819055505b8173ffffffffffffffffffffffffffffffffffffffff168373ffffffffffffffffffffffffffffffffffffffff167fddf252ad1be2c89b69c2b068fc378daa952ba7f163c4a11628f55a4df523b3ef836040516113bc91906115a8565b60405180910390a3505050565b600081519050919050565b600082825260208201905092915050565b60005b838110156114035780820151818401526020810190506113e8565b60008484015250505050565b6000601f19601f8301169050919050565b600061142b826113c9565b61143581856113d4565b93506114458185602086016113e5565b61144e8161140f565b840191505092915050565b600060208201905081810360008301526114738184611420565b905092915050565b6000604051905090565b600080fd5b600080fd5b600073ffffffffffffffffffffffffffffffffffffffff82169050919050565b60006114ba8261148f565b9050919050565b6114ca816114af565b81146114d557600080fd5b50565b6000813590506114e7816114c1565b92915050565b6000819050919050565b611500816114ed565b811461150b57600080fd5b50565b60008135905061151d816114f7565b92915050565b6000806040838503121561153a57611539611485565b5b6000611548858286016114d8565b92505060206115598582860161150e565b9150509250929050565b60008115159050919050565b61157881611563565b82525050565b6000602082019050611593600083018461156f565b92915050565b6115a2816114ed565b82525050565b60006020820190506115bd6000830184611599565b92915050565b6000806000606084860312156115dc576115db611485565b5b60006115ea868287016114d8565b93505060206115fb868287016114d8565b925050604061160c8682870161150e565b9150509250925092565b600060ff82169050919050565b61162c81611616565b82525050565b60006020820190506116476000830184611623565b92915050565b60006020828403121561166357611662611485565b5b6000611671848285016114d8565b91505092915050565b600080fd5b600080fd5b600080fd5b60008083601f84011261169f5761169e61167a565b5b8235905067ffffffffffffffff8111156116bc576116bb61167f565b5b6020830191508360018202830111156116d8576116d7611684565b5b9250929050565b6000806000604084860312156116f8576116f7611485565b5b600084013567ffffffffffffffff8111156117165761171561148a565b5b61172286828701611689565b935093505060206117358682870161150e565b9150509250925092565b600080fd5b7f4e487b7100000000000000000000000000000000000000000000000000000000600052604160045260246000fd5b61177c8261140f565b810181811067ffffffffffffffff8211171561179b5761179a611744565b5b80604052505050565b60006117ae61147b565b90506117ba8282611773565b919050565b600067ffffffffffffffff8211156117da576117d9611744565b5b6117e38261140f565b9050602081019050919050565b82818337600083830152505050565b600061181261180d846117bf565b6117a4565b90508281526020810184848401111561182e5761182d61173f565b5b6118398482856117f0565b509392505050565b600082601f8301126118565761185561167a565b5b81356118668482602086016117ff565b91505092915050565b6000806040838503121561188657611885611485565b5b6000611894858286016114d8565b925050602083013567ffffffffffffffff8111156118b5576118b461148a565b5b6118c185828601611841565b9150509250929050565b600080604083850312156118e2576118e1611485565b5b60006118f0858286016114d8565b9250506020611901858286016114d8565b9150509250929050565b60006020828403121561192157611920611485565b5b600061192f8482850161150e565b91505092915050565b7f4e487b7100000000000000000000000000000000000000000000000000000000600052602260045260246000fd5b6000600282049050600182168061197f57607f821691505b60208210810361199257611991611938565b5b50919050565b600081905092915050565b7f4865616c74680000000000000000000000000000000000000000000000000000600082015250565b60006119d9600683611998565b91506119e4826119a3565b600682019050919050565b60006119fa826119cc565b9150819050919050565b6000611a108385611998565b9350611a1d8385846117f0565b82840190509392505050565b6000611a36828486611a04565b91508190509392505050565b7f4e487b7100000000000000000000000000000000000000000000000000000000600052601160045260246000fd5b6000611a7c826114ed565b9150611a87836114ed565b9250828202611a95816114ed565b91508282048414831517611aac57611aab611a42565b5b5092915050565b7f4e6f7420656e6f75676820446567656e20546f6b656e7320746f20627579206860008201527f65616c7468000000000000000000000000000000000000000000000000000000602082015250565b6000611b0f6025836113d4565b9150611b1a82611ab3565b604082019050919050565b60006020820190508181036000830152611b3e81611b02565b9050919050565b6000611b50826114ed565b9150611b5b836114ed565b9250828201905080821115611b7357611b72611a42565b5b92915050565b7f536b696e00000000000000000000000000000000000000000000000000000000600082015250565b6000611baf600483611998565b9150611bba82611b79565b600482019050919050565b6000611bd082611ba2565b9150819050919050565b7f4e6f7420656e6f75676820446567656e20546f6b656e7320746f20627579207360008201527f6b696e0000000000000000000000000000000000000000000000000000000000602082015250565b6000611c366023836113d4565b9150611c4182611bda565b604082019050919050565b60006020820190508181036000830152611c6581611c29565b9050919050565b7f456d626c656d0000000000000000000000000000000000000000000000000000600082015250565b6000611ca2600683611998565b9150611cad82611c6c565b600682019050919050565b6000611cc382611c95565b9150819050919050565b7f4e6f7420656e6f75676820446567656e20546f6b656e7320746f20627579206560008201527f6d626c656d000000000000000000000000000000000000000000000000000000602082015250565b6000611d296025836113d4565b9150611d3482611ccd565b604082019050919050565b60006020820190508181036000830152611d5881611d1c565b9050919050565b7f47656d7300000000000000000000000000000000000000000000000000000000600082015250565b6000611d95600483611998565b9150611da082611d5f565b600482019050919050565b6000611db682611d88565b9150819050919050565b7f4e6f7420656e6f75676820446567656e20546f6b656e7320746f20627579206760008201527f656d730000000000000000000000000000000000000000000000000000000000602082015250565b6000611e1c6023836113d4565b9150611e2782611dc0565b604082019050919050565b60006020820190508181036000830152611e4b81611e0f565b9050919050565b7f496e76616c6964206974656d0000000000000000000000000000000000000000600082015250565b6000611e88600c836113d4565b9150611e9382611e52565b602082019050919050565b60006020820190508181036000830152611eb781611e7b565b9050919050565b7f796f7520617265206e6f7420746865206f776e65720000000000000000000000600082015250565b6000611ef46015836113d4565b9150611eff82611ebe565b602082019050919050565b60006020820190508181036000830152611f2381611ee7565b9050919050565b7f4e487b7100000000000000000000000000000000000000000000000000000000600052601260045260246000fd5b6000611f64826114ed565b9150611f6f836114ed565b925082611f7f57611f7e611f2a565b5b828204905092915050565b611f93816114af565b82525050565b6000606082019050611fae6000830186611f8a565b611fbb6020830185611599565b611fc86040830184611599565b949350505050565b6000602082019050611fe56000830184611f8a565b9291505056fea26469706673582212203a165124de2895975903926502ed3425e36ae9143eb324f4a8368166d4b7bc4d64736f6c63430008180033",
  "linkReferences": {},
  "deployedLinkReferences": {}
}